S01300005472616E736D6973736F722E737265636C
S11300000C943D000C9452000C9452000C94520039
S11300100C9452000C9452000C9452000C94520014
S11300200C9452000C9452000C9452000C94520004
S11300300C9452000C9452000C9452000C945200F4
S11300400C9452000C9452000C9452000C945200E4
S11300500C9452000C9452000C9452000C945200D4
S11300600C9452000C945200A7009F00A3009D0022
S11300709B00AB00A900A100A50011241FBECFEF77
S1130080D8E0DEBFCDBF11E0A0E0B1E0E2EDF9E0E1
S113009002C005900D92A830B107D9F70E94AD00B7
S11300A00C94E7040C94000080E480937C0087E8BF
S11300B080937A000895ECE7F0E09081907F8F7050
S11300C0892B8083EAE7F0E08081806480838091DB
S11300D07A0086FDFCCF8091780090917900089594
S11300E0883C910528F08132934020F4E0E003C07D
S11300F0EFEF01C0E1E0683C710528F06132734024
S113010020F490E003C09FEF01C091E00E2E000C9C
S1130110FF0B31968E2F880FE80F8E2F890FE1E0A9
S1130120E80F8E2F90E08930910528F4FC01EC5CF7
S1130130FF4F0C94B00486EA089585EA089588EA8E
S113014008958AEA08958BEA08958CEA08958DEA61
S113015008958EEA089587EA0895CF93DF9300D037
S1130160CDB7DEB784B1806284B90E9454008AB1ED
S1130170807F8AB98BB18F608BB920E836E948E972
S113018050E06AE089E00E94A1028CE40E946B02C4
S113019082E00E94800280E091E00E94630382E09A
S11301A00E945B008C0183E00E945B007C010132B1
S11301B023E01207D0F0980121523340AFEFB0E0B2
S11301C00E94B6042EED30E040E050E00E9491041D
S11301D08FEF90E0A0E0B0E0821B930BA40BB50B73
S11301E01AF580E090E0DC011FC0083C1105D8F44A
S11301F027EC30E0201B310BAFEFB0E00E94B604D7
S113020027EC30E040E050E00E9491048FEF90E052
S1130210A0E0B0E0821B930BA40BB50B2AF480E0A2
S113022090E0DC0101C08FEF8A8389B190E0809572
S113023090958F7099278230910569F01CF401978D
S113024039F012C08430910549F0089751F00CC080
S113025081EA89830EC082EA89830BC083EA898399
S113026008C084EA898305C0B801C7010E947000F0
S1130270898362E0CE0101960E94FE038FEF90E72E
S113028022E0815090402040E1F700C0000087CF79
S113029084B18C6284B980E58CBD81E08DBD089504
S11302A08EBD0DB407FEFDCF8EB508959091060165
S11302B0983060F44BB121E030E002C0220F331FCC
S11302C09A95E2F7209524232BB90EC09E3060F452
S11302D0985045B121E030E002C0220F331F9A95B7
S11302E0E2F72095242325B995E09A95F1F70000CB
S11302F08F710E9450018FEF0E945001909106016E
S1130300983058F44BB121E030E002C0220F331F83
S11303109A95E2F7242B2BB90DC09E3058F49850CF
S113032045B121E030E002C0220F331F9A95E2F775
S1130330242B25B995E09A95F1F7000008950F93C1
S11303401F93CF93DF938B01D42F909106019830A4
S113035060F44BB121E030E002C0220F331F9A95C4
S1130360E2F7209524232BB90EC09E3060F49850F8
S113037045B121E030E002C0220F331F9A95E2F725
S11303802095242325B965E06A95F1F700008F7163
S113039080620E945001C0E007C0F801EC0FF11D1B
S11303A080810E945001CF5FCD17B8F38091060180
S11303B0883068F44BB121E030E0B90102C0660F27
S11303C0771F8A95E2F7CB01842B8BB90FC08E304F
S11303D068F4885045B121E030E0B90102C0660FED
S11303E0771F8A95E2F7CB01842B85B975E07A955E
S11303F0F1F70000DF91CF911F910F910895EF92D3
S1130400FF920F931F93CF93DF938C01D62F842FEA
S113041090910601983060F44BB121E030E002C0C5
S1130420220F331F9A95E2F7209524232BB90EC08F
S11304309E3060F4985045B121E030E002C0220FB4
S1130440331F9A95E2F72095242325B965E06A9530
S1130450F1F700000E945001D13208F0D0E2C0E070
S11304600AC078017FEFE71AF70AF80180810E9439
S11304705001CF5F8701CD17A0F38091060188302A
S113048068F44BB121E030E0B90102C0660F771F78
S11304908A95E2F7CB01842B8BB90FC08E3068F4B8
S11304A0885045B121E030E0F90102C0EE0FFF1F92
S11304B08A95E2F7CF01842B85B9F5E0FA95F1F737
S11304C00000DF91CF911F910F91FF90EF9008955D
S11304D00E9448010895CF93DF931F92CDB7DEB7F2
S11304E089838E3710F08DE7898341E0BE016F5F09
S11304F07F4F85E00E949F010F90DF91CF91089577
S11305001F93CF93DF931F92CDB7DEB7811101C044
S113051081E0813208F080E280930501898310E054
S113052009C041E0BE016F5F7F4F81E1810F0E94EE
S11305309F011F5F1630A8F30F90DF91CF911F9199
S113054008951F93CF93DF9300D01F92CDB7DEB7EA
S11305508093070160930601883068F44AB121E072
S113056030E0B90102C0660F771F8A95E2F7CB012C
S1130570842B8AB90FC08E3068F4885044B121E0CE
S113058030E0B90102C0660F771F8A95E2F7CB010C
S1130590842B84B980910601883068F44AB121E043
S11305A030E0B90102C0660F771F8A95E2F7CB01EC
S11305B0842B8AB90FC08E3068F4885044B121E08E
S11305C030E0B90102C0660F771F8A95E2F7CB01CC
S11305D0842B84B980910701883070F44BB121E0F9
S11305E030E0B90102C0660F771F8A95E2F7CB01AC
S11305F0809584238BB910C08E3070F4885045B137
S113060021E030E0B90102C0660F771F8A95E2F756
S1130610CB018095842385B980910601883068F4E4
S11306204BB121E030E0B90102C0660F771F8A9513
S1130630E2F7CB01842B8BB90FC08E3068F488505D
S113064045B121E030E0B90102C0660F771F8A95F9
S1130650E2F7CB01842B85B975E07A95F1F70000B8
S11306600E9468028FE19EE40197F1F700C0000048
S11306708AE0898341E0BE016F5F7F4F80E00E9482
S11306809F018FE19EE40197F1F700C00000809183
S113069005010E94800211E01A8341E0BE016E5FF1
S11306A07F4F81E00E949F011B8341E0BE016D5F8B
S11306B07F4F82E00E949F010F900F900F90DF9177
S11306C0CF911F910895CF93DF93EC0145E0BC01D6
S11306D080E10E949F0145E0BE018AE00E949F01E3
S11306E0DF91CF910895CF93DF931F92CDB7DEB7FB
S11306F080910701883070F44BB121E030E0B901FA
S113070002C0660F771F8A95E2F7CB018095842398
S11307108BB910C08E3070F4885045B121E030E0C0
S1130720B90102C0660F771F8A95E2F7CB01809565
S1130730842385B980E00E9456018E7F898341E03D
S1130740BE016F5F7F4F80E00E949F0187E092E0CF
S11307500197F1F700C000000F90DF91CF91089549
S113076080910601883070F44BB121E030E0B9018A
S113077002C0660F771F8A95E2F7CB018095842328
S11307808BB910C08E3070F4885045B121E030E050
S1130790B90102C0660F771F8A95E2F7CB018095F5
S11307A0842385B975E07A95F1F7000081EE0E9403
S11307B0500180910601883068F44BB121E030E0AB
S11307C0B90102C0660F771F8A95E2F7CB01842B2B
S11307D08BB90FC08E3068F4885045B121E030E009
S11307E0B90102C0660F771F8A95E2F7CB01842B0B
S11307F085B975E07A95F1F700000895FF920F939B
S11308001F93CF93DF931F92CDB7DEB78C01F62EE3
S11308100E94730340EA6F2DC8010E94FF0180917A
S11308200701883068F44BB121E030E0B90102C01F
S1130830660F771F8A95E2F7CB01842B8BB90FC023
S11308408E3068F4885045B121E030E0B90102C02F
S1130850660F771F8A95E2F7CB01842B85B970E583
S11308607A95F1F780910701883080F44BB121E04B
S113087030E0B90102C0660F771F8A95E2F7CB0119
S1130880809584238BB988E893E13DC08E30C8F508
S1130890885045B121E030E0B90102C0660F771FEE
S11308A08A95E2F7CB018095842385B988E893E1A2
S11308B02AC087E00E945601782F7072F72E85FFB8
S11308C00CC080E2898341E0BE016F5F7F4F87E007
S11308D00E949F01FF24F3941CC084FF0CC080E19C
S11308E0898341E0BE016F5F7F4F87E00E949F01D3
S11308F00E94B0030EC085E38A95F1F70000C80199
S113090002C088E893E18C0101501109892B89F612
S1130910F12C8F2D0F90DF91CF911F910F91FF90AC
S11309200895052E97FB1EF400940E94A80457FD19
S113093007D00E94C50407FC03D04EF40C94A8040D
S113094050954095309521953F4F4F4F5F4F0895F7
S113095090958095709561957F4F8F4F9F4F089527
S1130960EE0FFF1F0590F491E02D0994A29FB001B2
S1130970B39FC001A39F700D811D1124911DB29FCF
S1130980700D811D1124911D0895A1E21A2EAA1B38
S1130990BB1BFD010DC0AA1FBB1FEE1FFF1FA2172B
S11309A0B307E407F50720F0A21BB30BE40BF50B28
S11309B0661F771F881F991F1A9469F760957095B1
S11309C0809590959B01AC01BD01CF010895F894E9
S10509D0FFCF53
S10B09D24E4F444531200A0890
S9030000FC
