:100000000C9442000C945F000C945F000C945F0011
:100010000C945F000C945F000C945F000C945F00E4
:100020000C945F000C945F000C945F000C946100D2
:100030000C945F000C945F000C945F000C945F00C4
:100040000C945F000C945F000C945F000C945F00B4
:100050000C945F000C945F000C945F000C945F00A4
:100060000C945F000C945F006E017D01820187019A
:100070008C0197019E01A901D001AF01B501BC011E
:10008000C301CA0111241FBECFEFD8E0DEBFCDBF30
:1000900011E0A0E0B1E0E6E4F9E002C005900D92C5
:1000A000A830B107D9F721E0A8E0B1E001C01D9266
:1000B000AC30B207E1F70E9414010C94A1040C9437
:1000C00000001F920F920FB60F9211248F939F93EF
:1000D00080910A01813081F4809109018F5F8093C2
:1000E000090180910901853038F010920A011092BF
:1000F000090188B18D7F88B980910A01811108C0FA
:1001000098B182E0892788B981E080930B0103C010
:1001100088B18D7F88B99F918F910F900FBE0F90FE
:100120001F90189510928000E1E8F0E01082109284
:1001300085001092840083E294EF9093890080936D
:10014000880080818C608083EFE6F0E080818260AF
:100150008083089587B1826087B988B18D7F88B91F
:100160000E949200789408958AB188648AB917BC75
:100170001092B40083EC84BD83E38093B00083E0ED
:1001800085BD84E08093B10008958AB188648AB9FE
:100190008FEF87BD8093B40083EC84BD83E38093AD
:1001A000B00083E085BD84E08093B100089580E4D1
:1001B00080937C0087E880937A000895ECE7F0E074
:1001C0009081907F8F70892B8083EAE7F0E08081B7
:1001D0008064808380917A0086FDFCCFEAE7F0E0BE
:1001E00080818064808380917A0086FDFCCF80913D
:1001F00078009091790008958BB181608BB90E944D
:10020000C500F89410920B01789480910B0188231B
:10021000E1F310920B0181E080930A011092090131
:1002200088B18D7F88B90895CF93DF9300D0CDB783
:10023000DEB70E94AA000E94B4000E94D700789402
:1002400087B1886187B98AB187608AB998B188E136
:10025000892788B99BB184E089278BB920E836E9E2
:1002600048E950E06AE088E00E9471038CE40E9453
:100270003B0382E00E94500360E071E080E00E9456
:1002800033040E9443040F2EF3E0FF2EF02DD12CF7
:1002900080910A01813019F40E94B400F9CF80E006
:1002A0000E94DE008C010E947E04882309F478C03D
:1002B00062E0CE0101960E948704E981EA80CE2C9B
:1002C000C0948E2F90E0FC01E15AF109EE30F10567
:1002D00008F066C0EC5CFF4F0C949B04F11060C00A
:1002E00098B188E1892788B99BB184E089278BB9C7
:1002F0000F2EF3E0FF2EF02D53C098B180E1892737
:1003000088B94EC09BB181E089278BB949C09BB1A8
:1003100082E089278BB944C0D11042C00E94C50039
:100320008BB18C7F8BB9C7BCC092B40039C00E941E
:10033000B4008BB18C7F8BB9D12C32C08BB1836070
:100340008BB90E94C500C7BCC092B400DD24D39411
:1003500027C00E94C50017BCE092B40021C00E94D3
:10036000C500E7BC1092B4001BC00E94C500C7BC0A
:10037000E694E092B40014C00E94C500E694E7BC85
:10038000C092B4000DC00E94C500C7BCE694E092C4
:10039000B40006C00E94C500E694E7BCC092B40059
:1003A0000E31110588F483E0F8120EC08091080127
:1003B00081110AC0FA9488B1877F88B981E080935F
:1003C00008010E94FC0064CF0E31110588F482E020
:1003D000F8120EC08091080181110AC0FA9488B108
:1003E0008F7E88B981E0809308010E94FC0050CF85
:1003F0000E31110588F481E0F8120EC080910801D9
:1004000081110AC0FA948BB18B7F8BB981E0809304
:1004100008010E94FC003CCF0F31110508F438CFD1
:100420001092080135CF84B18C6284B980E58CBD0F
:1004300081E08DBD08958EBD0DB407FEFDCF8EB554
:100440000895EF92FF920F931F93CF93DF938C0148
:10045000D62F80910601883070F44BB121E030E056
:10046000B90102C0660F771F8A95E2F7CB0180952C
:1004700084238BB910C08E3070F4885045B121E0D0
:1004800030E0F90102C0EE0FFF1F8A95E2F7CF01BD
:100490008095842385B9F5E0FA95F1F7000081E6AF
:1004A0000E941B02D13208F0D0E2C0E00BC07801FC
:1004B0006FEFE61AF60A8FEF0E941B02F8018083A5
:1004C000CF5F8701CD1798F380910601883068F4DB
:1004D0004BB121E030E0B90102C0660F771F8A9569
:1004E000E2F7CB01842B8BB90FC08E3068F48850B3
:1004F00045B121E030E0F90102C0EE0FFF1F8A95FF
:10050000E2F7CF01842B85B9F5E0FA95F1F7000009
:10051000DF91CF911F910F91FF90EF9008959091EF
:100520000601983060F44BB121E030E002C0220FA8
:10053000331F9A95E2F7209524232BB90EC09E30E5
:1005400060F4985045B121E030E002C0220F331F23
:100550009A95E2F72095242325B995E09A95F1F72D
:1005600000008F710E941B028FEF0E941B0290916E
:100570000601983058F44BB121E030E002C0220F60
:10058000331F9A95E2F7242B2BB90DC09E3058F4F7
:10059000985045B121E030E002C0220F331F9A95F8
:1005A000E2F7242B25B995E09A95F1F7000008951C
:1005B0000F931F93CF93DF938B01D42F909106015C
:1005C000983060F44BB121E030E002C0220F331FBD
:1005D0009A95E2F7209524232BB90EC09E3060F443
:1005E000985045B121E030E002C0220F331F9A95A8
:1005F000E2F72095242325B965E06A95F1F700001C
:100600008F7180620E941B02C0E007C0F801EC0FEE
:10061000F11D80810E941B02CF5FCD17B8F380913E
:100620000601883068F44BB121E030E0B90102C026
:10063000660F771F8A95E2F7CB01842B8BB90FC029
:100640008E3068F4885045B121E030E0B90102C035
:10065000660F771F8A95E2F7CB01842B85B975E089
:100660007A95F1F70000DF91CF911F910F910895D6
:100670000E9413020895CF93DF931F92CDB7DEB788
:1006800089838E3710F08DE7898341E0BE016F5F6B
:100690007F4F85E00E94D8020F90DF91CF9108959F
:1006A0001F93CF93DF931F92CDB7DEB7811101C0A7
:1006B00081E0813208F080E280930501898310E0B7
:1006C00009C041E0BE016F5F7F4F81E1810F0E9451
:1006D000D8021F5F1630A8F30F90DF91CF911F91C2
:1006E00008951F93CF93DF9300D01F92CDB7DEB74D
:1006F0008093070160930601883068F44AB121E0D5
:1007000030E0B90102C0660F771F8A95E2F7CB018E
:10071000842B8AB90FC08E3068F4885044B121E030
:1007200030E0B90102C0660F771F8A95E2F7CB016E
:10073000842B84B980910601883068F44AB121E0A5
:1007400030E0B90102C0660F771F8A95E2F7CB014E
:10075000842B8AB90FC08E3068F4885044B121E0F0
:1007600030E0B90102C0660F771F8A95E2F7CB012E
:10077000842B84B980910701883070F44BB121E05B
:1007800030E0B90102C0660F771F8A95E2F7CB010E
:10079000809584238BB910C08E3070F4885045B199
:1007A00021E030E0B90102C0660F771F8A95E2F7B9
:1007B000CB018095842385B980910601883068F447
:1007C0004BB121E030E0B90102C0660F771F8A9576
:1007D000E2F7CB01842B8BB90FC08E3068F48850C0
:1007E00045B121E030E0B90102C0660F771F8A955C
:1007F000E2F7CB01842B85B975E07A95F1F700001B
:100800000E9438038FE19EE40197F1F700C00000D9
:100810008AE0898341E0BE016F5F7F4F80E00E94E4
:10082000D8028FE19EE40197F1F700C000008091AB
:1008300005010E94500311E01A8341E0BE016E5F82
:100840007F4F81E00E94D8021B8341E0BE016D5FB3
:100850007F4F82E00E94D8020F900F900F90DF919F
:10086000CF911F910895811105C045E08AE00E9453
:10087000D80208959FEF980F953020F441E0865FED
:100880000E94D8020895CF93DF931F92CDB7DEB7B1
:1008900080E00E948F028160898341E0BE016F5F2A
:1008A0007F4F80E00E94D80280910701883068F471
:1008B0004BB121E030E0B90102C0660F771F8A9585
:1008C000E2F7CB01842B8BB90FC08E3068F48850CF
:1008D00045B121E030E0B90102C0660F771F8A956B
:1008E000E2F7CB01842B85B987E092E00197F1F71D
:1008F00000C000000F90DF91CF91089587E00E9423
:100900008F02982F907486FD91E0892F0895CF93E0
:10091000DF931F92CDB7DEB70E94210280E4898366
:1009200041E0BE016F5F7F4F87E00E94D8020F90C9
:10093000DF91CF910895EE0FFF1F0590F491E02D08
:060940000994F894FFCFBA
:080946004E4F444531200A0820
:00000001FF
